:100000000C9435000C945D000C945D000C945D0024
:100010000C945D000C945D000C945D000C945D00EC
:100020000C945D000C945D000C945D000C945D00DC
:100030000C945D000C945D000C945D000C945D00CC
:100040000C94B0010C945D000C9420020C94FA0105
:100050000C945D000C945D000C945D000C945D00AC
:100060000C945D000C945D00E80311241FBECFEFDB
:10007000D8E0DEBFCDBF11E0A0E0B1E0E4E5FEE0F6
:1000800002C005900D92AC3AB107D9F722E0ACEA74
:10009000B1E001C01D92A235B207E1F710E0C5E35F
:1000A000D0E004C02197FE010E941D07C433D10790
:1000B000C9F70E94BB020C9428070C940000FB01B6
:1000C000A485B585ED91FC9111970190F081E02D0B
:1000D000682FCD01099580E090E008953FB7F8942E
:1000E0008091B1019091B201A091B301B091B4019E
:1000F00026B5A89B05C02F3F19F00196A11DB11D83
:100100003FBFBA2FA92F982F8827820F911DA11DBD
:10011000B11DBC01CD0142E0660F771F881F991FFA
:100120004A95D1F70895CF92DF92EF92FF920F9305
:100130001F93CF93DF936C017A018B01C0E0D0E075
:10014000CE15DF0581F0D8016D918D01D601ED91BD
:10015000FC910190F081E02DC6010995892B11F0E9
:100160002196EECF7E01C701DF91CF911F910F91B4
:10017000FF90EF90DF90CF900895089580E090E099
:100180000895FC01538D448D252F30E0842F90E09D
:10019000821B930B541710F0CF9608950197089582
:1001A000FC01918D828D981761F0828DDF01A80F7F
:1001B000B11D5D968C91928D9F5F9F73928F90E0A1
:1001C00008958FEF9FEF0895FC01918D828D981710
:1001D00031F0828DE80FF11D858D90E008958FEF4D
:1001E0009FEF0895FC01918D228D892F90E0805C16
:1001F0009F4F821B91098F739927089585EB91E09A
:100200000E94F20021E0892B09F420E0822F08955A
:10021000FC01848DDF01A80FB11DA35ABF4F2C91A3
:10022000848D90E001968F739927848FA689B78972
:100230002C93A089B1898C9180648C93938D848D4B
:10024000981306C00288F389E02D80818F7D80831A
:100250000895EF92FF920F931F93CF93DF93EC01DA
:1002600081E0888F9B8D8C8D981305C0E889F98972
:10027000808185FD24C0F62E0B8D10E00F5F1F4F8F
:100280000F731127E02E8C8DE8120CC00FB607FCFF
:10029000FACFE889F989808185FFF5CFCE010E94E8
:1002A0000801F1CF8B8DFE01E80FF11DE35AFF4FDE
:1002B000F0820B8FEA89FB898081806207C0EE891A
:1002C000FF896083E889F98980818064808381E087
:1002D00090E0DF91CF911F910F91FF90EF900895E3
:1002E000CF93DF93EC01888D8823C9F0EA89FB89DD
:1002F000808185FD05C0A889B9898C9186FD0FC0D4
:100300000FB607FCF5CF808185FFF2CFA889B989A8
:100310008C9185FFEDCFCE010E940801E7CFDF91E0
:10032000CF91089580E090E0892B29F00E94FE0093
:1003300081110C9400000895009769F0FC01019070
:100340000020E9F73197AF01481B590BBC0185EB41
:1003500091E00C94930080E090E008950E942307C0
:100360001F920F920FB60F9211242F933F938F93EA
:100370009F93AF93BF938091AD019091AE01A091F7
:10038000AF01B091B0013091AC0123E0230F2D37C4
:1003900020F40196A11DB11D05C026E8230F029689
:1003A000A11DB11D2093AC018093AD019093AE01CE
:1003B000A093AF01B093B0018091B1019091B201CF
:1003C000A091B301B091B4010196A11DB11D80931C
:1003D000B1019093B201A093B301B093B401BF9166
:1003E000AF919F918F913F912F910F900FBE0F90E2
:1003F0001F9018951F920F920FB60F9211242F93F2
:100400003F934F935F936F937F938F939F93AF939C
:10041000BF93EF93FF9385EB91E00E940801FF915A
:10042000EF91BF91AF919F918F917F916F915F916C
:100430004F913F912F910F900FBE0F901F901895E5
:100440001F920F920FB60F9211242F938F939F93A9
:10045000EF93FF93E091C501F091C6018081E09197
:10046000CB01F091CC0182FD12C090818091CE0130
:100470008F5F8F732091CF01821751F0E091CE01F1
:10048000F0E0EB54FE4F958F8093CE0101C0808148
:10049000FF91EF919F918F912F910F900FBE0F9031
:1004A0001F9018958F929F92AF92BF920F931F93B8
:1004B000CF93DF93CDB7DEB7A1970FB6F894DEBF29
:1004C0000FBECDBF19A2423008F44AE08E010F5D85
:1004D0001F4F842E912CA12CB12CA50194010E94B8
:1004E000FB06E62FB901CA0101501109EA3014F4E4
:1004F000E05D01C0E95CD801EC93232B242B252B74
:1005000061F7C8010E949C01A1960FB6F894DEBF66
:100510000FBECDBFDF91CF911F910F91BF90AF90D4
:100520009F908F900895CF93DF93CDB7DEB72E972E
:100530000FB6F894DEBF0FBECDBF8FE590E09A876F
:1005400089871C861B8682E08C8385EB91E09E87E1
:100550008D87AE01495E5F4F62E171E0CE01019689
:100560000E9415042E960FB6F894DEBF0FBECDBFC5
:10057000DF91CF910895CF93DF93CDB7DEB760972A
:100580000FB6F894DEBF0FBECDBF789484B58260FD
:1005900084BD84B5816084BD85B5826085BD85B527
:1005A000816085BD80916E00816080936E001092A5
:1005B0008100809181008260809381008091810020
:1005C00081608093810080918000816080938000B1
:1005D0008091B10084608093B1008091B00081600F
:1005E0008093B00080917A00846080937A0080913B
:1005F0007A00826080937A0080917A008160809393
:100600007A0080917A00806880937A001092C1000D
:1006100005EB11E0E091C501F091C60182E0808315
:10062000E091C101F091C2011082E091C301F0910B
:10063000C4018FEC80831092CD01E091C901F0914B
:10064000CA0186E08083E091C701F091C8018081F2
:1006500080618083E091C701F091C801808188604A
:100660008083E091C701F091C80180818068808318
:10067000E091C701F091C80180818F7D808340E1C6
:1006800050E060E070E0CE0101960E94A6068981EC
:100690009A818E3E910509F052C088898F938F858B
:1006A0008F938E858F938D858F938E818F938D8180
:1006B0008F938C818F938B818F931F928EEE8F936C
:1006C00082E191E09F938F931F930F930E94930277
:1006D00080E190E00E94BE067C018EE591E00E94E0
:1006E0009C01B70180E090E04AE00E94520286E659
:1006F00091E00E949C0180E190E06C01990FEE086E
:10070000FF080FB6F894DEBF0FBECDBFF7FE0DC0D9
:100710006DE2C8010E94290166277727CB016C1979
:100720007D098E099F094AE003C04AE0C701B6016E
:100730000E9452028AE691E00E949C0116C08DE65A
:1007400091E00E949C018AE691E00E949C01FFCF0B
:10075000E12CF12C0E946E004B015C01C114D1040C
:10076000E104F10439F50E94920180E190E00E94D9
:10077000BE066C0182E190E08C010F5F1F4F0E946A
:10078000B606882329F3682F85EB91E00E942901A2
:10079000C801F2CF91E0C91AD108E108F10828EEAA
:1007A000820E23E0921EA11CB11CC114D104E104ED
:1007B000F104A1F20E946E00DC01CB0188199909B5
:1007C000AA09BB09883E9340A105B10518F7C6CF19
:1007D000E5EBF1E01382128288EE93E0A0E0B0E056
:1007E00084839583A683B78384E091E0918380839B
:1007F00085EC90E09587848784EC90E097878687E6
:1008000080EC90E0918B808B81EC90E0938B828BDD
:1008100082EC90E0958B848B86EC90E0978B868BB6
:10082000118E128E138E148E0895ABE0B0E0EBE1C2
:10083000F4E00C94C4066C017B018A01FC01178270
:100840001682838181FFCCC1CE0101963C01F60165
:100850009381F70193FD859193FF81917F01882317
:1008600009F4BAC1853239F493FD859193FF8191E2
:100870007F01853229F4B60190E00E940C06E7CF93
:10088000912C212C312CFFE1F315D8F08B3279F02B
:1008900038F4803279F08332A1F4232D20611DC019
:1008A0008D3261F0803369F4232D216016C0832DD1
:1008B0008260382EE32DE4603E2E2AC0F32DF860CE
:1008C0001DC037FC2DC020ED280F2A3040F08E329D
:1008D000B9F436FC81C1232D2064322E19C036FEB6
:1008E00006C08AE0989E200D1124922E11C0EAE0E5
:1008F0002E9E200D1124222EF32DF0623F2E08C0D3
:100900008C3621F4832D8068382E02C0883641F45D
:10091000F70193FD859193FF81917F018111B3CF01
:10092000982F9F7D9554933028F40C5F1F4F9FE3C1
:1009300099830DC0833631F0833771F0833509F028
:1009400059C021C0F801808189830E5F1F4F882420
:100950008394912C530113C02801F2E04F0E511CD7
:10096000F801A080B18036FE03C0692D70E002C09E
:100970006FEF7FEFC5010E9401064C018201F32D4C
:10098000FF773F2E16C0280122E0420E511CF801CD
:10099000A080B18036FE03C0692D70E002C06FEF09
:1009A0007FEFC5010E94F6054C01F32DF0683F2E44
:1009B000820133FC1BC0822D90E088169906B0F4AA
:1009C000B60180E290E00E940C062A94F4CFF50173
:1009D00037FC859137FE81915F01B60190E00E945E
:1009E0000C0621102A9421E0821A910881149104A6
:1009F00071F7E8C0843611F0893641F5F80137FE09
:100A000007C060817181828193810C5F1F4F08C094
:100A100060817181072E000C880B990B0E5F1F4FB0
:100A2000F32DFF763F2E97FF09C090958095709526
:100A300061957F4F8F4F9F4FF0683F2E2AE030E047
:100A4000A3010E944806882E861845C0853731F4D8
:100A5000232D2F7EB22E2AE030E025C0932D997FE2
:100A6000B92E8F36C1F018F4883579F0B5C08037CB
:100A700019F0883721F0B0C0E92FE061BE2EB4FE36
:100A80000DC0FB2DF460BF2E09C034FE0AC0292F13
:100A90002660B22E06C028E030E005C020E130E03C
:100AA00002C020E132E0F801B7FE07C06081718129
:100AB000828193810C5F1F4F06C06081718180E04D
:100AC00090E00E5F1F4FA3010E944806882E8618F3
:100AD000FB2DFF773F2E36FE0DC0232D2E7FA22E3D
:100AE000891458F434FE0BC032FC09C0832D8E7E6D
:100AF000A82E05C0B82CA32C03C0B82C01C0B92C5B
:100B0000A4FE0FC0FE01E80DF11D8081803321F4A9
:100B10009A2D997EA92E09C0A2FE06C0B394B39463
:100B200004C08A2D867809F0B394A3FC11C0A0FEFE
:100B300006C0B21488F4280C922C9B180EC0B21474
:100B400060F4B60180E290E00E940C06B394F7CF07
:100B5000B21418F42B1802C0982C212CA4FE10C03B
:100B6000B60180E390E00E940C06A2FE17C0A1FC33
:100B700003C088E790E002C088E590E0B6010CC0B1
:100B80008A2D867859F0A1FE02C08BE201C080E276
:100B9000A7FC8DE2B60190E00E940C06891438F49F
:100BA000B60180E390E00E940C069A94F7CF8A94F5
:100BB000F301E80DF11D8081B60190E00E940C0662
:100BC0008110F5CF222009F442CEB60180E290E0F8
:100BD0000E940C062A94F6CFF6018681978102C006
:100BE0008FEF9FEF2B96E2E10C94E006FC0105905D
:100BF000615070400110D8F7809590958E0F9F1F1F
:100C00000895FC016150704001900110D8F7809563
:100C100090958E0F9F1F08950F931F93CF93DF938F
:100C2000FB01238121FD03C08FEF9FEF2CC022FF2A
:100C300016C046815781248135814217530744F4F9
:100C4000A081B1819D012F5F3F4F318320838C9321
:100C5000268137812F5F3F4F3783268314C08B0156
:100C6000EC01FB010084F185E02D0995892BE1F66B
:100C7000D80116968D919C911797019617969C9383
:100C80008E931697CE01DF91CF911F910F9108950A
:100C9000FA01AA27283051F1203181F1E8946F93AD
:100CA0006E7F6E5F7F4F8F4F9F4FAF4FB1E03ED053
:100CB000B4E03CD0670F781F891F9A1FA11D680FF1
:100CC000791F8A1F911DA11D6A0F711D811D911D24
:100CD000A11D20D009F468943F912AE0269F112499
:100CE0003019305D3193DEF6CF010895462F4770FD
:100CF000405D4193B3E00FD0C9F7F6CF462F4F7058
:100D0000405D4A3318F0495D31FD4052419302D0B5
:100D1000A9F7EACFB4E0A69597958795779567955B
:100D2000BA95C9F700976105710508959B01AC015B
:100D30000A2E06945795479537952795BA95C9F782
:100D4000620F731F841F951FA01D0895DC01CB0146
:100D5000FC01F999FECF06C0F2BDE1BDF89A3196CB
:100D600000B40D9241505040B8F70895F999FECF64
:100D700092BD81BDF89A992780B50895A8E1B0E0A9
:100D800042E050E00C94A8062F923F924F925F925F
:100D90006F927F928F929F92AF92BF92CF92DF928B
:100DA000EF92FF920F931F93CF93DF93CDB7DEB7F0
:100DB000CA1BDB0B0FB6F894DEBF0FBECDBF099484
:100DC0002A88398848885F846E847D848C849B84DB
:100DD000AA84B984C884DF80EE80FD800C811B81E9
:100DE000AA81B981CE0FD11D0FB6F894DEBF0FBE18
:100DF000CDBFED010895A1E21A2EAA1BBB1BFD0178
:100E00000DC0AA1FBB1FEE1FFF1FA217B307E407E9
:100E1000F50720F0A21BB30BE40BF50B661F771F41
:100E2000881F991F1A9469F7609570958095909521
:100E30009B01AC01BD01CF010895EE0FFF1F05908E
:100E4000F491E02D099481E090E0F8940C94280747
:040E5000F894FFCF44
:100E54000000000029019300C1007001F200D000DD
:100E6400E400466F756E642070617267656E20627F
:100E74006C6F636B2068656164657220696E2045E0
:100E84004550524F4D3A2049443A25305820566532
:100E94007273696F6E3A25642E2564204C656E6703
:100EA40074683A2025642062797465730A00646565
:100EB4006C61793A2000204020000D0A00466174DC
:100EC400616C3A2050617267656E20626C6F636B6F
:100ED400206865616465722077697468206964209C
:100EE40030784545206E6F742070726573656E743A
:0C0EF40020696E20454550524F4D2E00E5
:00000001FF
