:100000000C9435000C945D000C945D000C945D0024
:100010000C945D000C945D000C945D000C945D00EC
:100020000C945D000C945D000C945D000C945D00DC
:100030000C945D000C945D000C945D000C945D00CC
:100040000C9412020C945D000C9482020C945C02DD
:100050000C945D000C945D000C945D000C945D00AC
:100060000C945D000C945D00BC0311241FBECFEF07
:10007000D8E0DEBFCDBF11E0A0E0B1E0ECECFDE0E8
:1000800002C005900D92AC3AB107D9F722E0ACEA74
:10009000B1E001C01D92A235B207E1F710E0C5E35F
:1000A000D0E004C02197FE010E94DE06C433D107D0
:1000B000C9F70E94B4020C94E4060C940000FB0102
:1000C000A485B585ED91FC9111970190F081E02D0B
:1000D000682FCD01099590E080E008953FB7F8942E
:1000E0008091B1019091B201A091B301B091B4019E
:1000F00026B5A89B05C02F3F19F00196A11DB11D83
:100100003FBFBA2FA92F982F8827BC01CD01620FBE
:10011000711D811D911D42E0660F771F881F991F79
:100120004A95D1F70895AF92BF92CF92DF92EF92A6
:10013000FF920F931F93CF93DF936C017B018B0191
:10014000040F151FEB015E01AE18BF08C017D107E1
:1001500059F06991D601ED91FC910190F081E02D6B
:10016000C6010995892B79F7C501DF91CF911F91C0
:100170000F91FF90EF90DF90CF90BF90AF900895D8
:10018000FC01538D448D252F30E0842F90E0821B9D
:10019000930B541710F0CF96089501970895FC0122
:1001A000918D828D981761F0A28DAE0FBF2FB11D7A
:1001B0005D968C91928D9F5F9F73928F90E00895D2
:1001C0008FEF9FEF0895FC01918D828D981731F08C
:1001D000828DE80FF11D858D90E008958FEF9FEFE0
:1001E0000895FC01918D228D892F90E0805C9F4FB6
:1001F000821B91098F739927089585EB91E00E94E6
:10020000F10021E0892B09F420E0822F089580E09D
:1002100090E0892B29F00E94FD0081110C940000D0
:100220000895FC01A48DA80FB92FB11DA35ABF4F8B
:100230002C91848D90E001968F739927848FA689E5
:10024000B7892C93A089B1898C9180648C93938D0C
:10025000848D981306C00288F389E02D80818F7DFC
:1002600080830895EF92FF920F931F93CF93DF93B4
:10027000EC0181E0888F9B8D8C8D981316C0E889E6
:10028000F989808185FF11C0EE89FF896083E88943
:10029000F98980818064808381E090E0DF91CF9153
:1002A0001F910F91FF90EF900895F62E0B8D10E0A7
:1002B0000F5F1F4F0F731127E02E8C8D8E110CC016
:1002C0000FB607FCFACFE889F989808185FFF5CF61
:1002D000CE010E941101F1CFEB8DEC0FFD2FF11D2E
:1002E000E35AFF4FF0820B8FEA89FB89808180629D
:1002F000D2CFCF93DF93EC01888D8823B9F0AA8900
:10030000BB89E889F9898C9185FD03C0808186FDD0
:100310000DC00FB607FCF7CF8C9185FFF2CF80811F
:1003200085FFEDCFCE010E941101E9CFDF91CF9182
:100330000895FC0101900020E9F73197AF01481BB7
:10034000590BBC0185EB91E00C9493008F929F9226
:10035000AF92BF920F931F93CF93DF93CDB7DEB7CA
:10036000A1970FB6F894DEBF0FBECDBF19A24230E1
:1003700008F44AE08E010F5D1F4F842E912CB12CA2
:10038000A12CA50194010E94BC06E62FB901CA0167
:10039000EA30F4F4E05DD801EE938D01232B242B99
:1003A000252B79F790E080E0109719F0CD010E949D
:1003B0009901A1960FB6F894DEBF0FBECDBFDF91B5
:1003C000CF911F910F91BF90AF909F908F90089504
:1003D000E95CE1CFCF93DF93CDB7DEB72E970FB6B1
:1003E000F894DEBF0FBECDBF8FE590E09A87898776
:1003F0001C861B8682E08C8385EB91E09E878D872F
:10040000AE01495E5F4F62E171E0CE0101960E944C
:10041000E9032E960FB6F894DEBF0FBECDBFDF9175
:10042000CF9108951F920F920FB60F9211242F9320
:100430003F938F939F93AF93BF938091AD01909122
:10044000AE01A091AF01B091B0013091AC0123E0B9
:10045000230F2D3768F126E8230F0296A11DB11D49
:100460002093AC018093AD019093AE01A093AF01B6
:10047000B093B0018091B1019091B201A091B3010C
:10048000B091B4010196A11DB11D8093B10190936B
:10049000B201A093B301B093B401BF91AF919F910A
:1004A0008F913F912F910F900FBE0F901F90189535
:1004B0000196A11DB11DD4CF1F920F920FB60F92BE
:1004C00011242F933F934F935F936F937F938F9359
:1004D0009F93AF93BF93EF93FF9385EB91E00E94BF
:1004E0001101FF91EF91BF91AF919F918F917F91FA
:1004F0006F915F914F913F912F910F900FBE0F9091
:100500001F9018951F920F920FB60F9211242F93E0
:100510008F939F93EF93FF93E091C501F091C601F4
:100520008081E091CB01F091CC0182FD1BC09081D4
:100530008091CE018F5F8F732091CF01821741F0A0
:10054000E091CE01F0E0EB54FE4F958F8093CE0109
:10055000FF91EF919F918F912F910F900FBE0F9070
:100560001F9018958081F4CFCF93DF93CDB7DEB77E
:1005700060970FB6F894DEBF0FBECDBF789484B5F8
:10058000836084BD85B5836085BD80916E00816088
:1005900080936E0092E09093810080918100816051
:1005A00080938100809180008160809380008091A1
:1005B000B10084608093B1008091B000816080932D
:1005C000B00087E880937A001092C10005EB11E03B
:1005D000E091C501F091C6019083E091C101F091D5
:1005E000C2011082E091C301F091C4018FEC8083BD
:1005F0001092CD01E091C901F091CA0186E080839B
:10060000E091C701F091C801808188698083E09101
:10061000C701F091C80180818F7D808340E150E067
:1006200060E070E0CE0101960E94670689819A81A0
:100630008E3E910509F069C088898F938F858F93CD
:100640008E858F938D858F938E818F938D818F93E0
:100650008C818F938B818F931F928EEE8F9382E18B
:1006600091E09F938F931F930F930E94EA0180E183
:1006700090E00E947F068C018EE591E00E94990136
:10068000B80190E080E04AE00E94A60186E691E091
:100690000E94990160E170E06B01770FEE08FF089E
:1006A0000FB6F894DEBF0FBECDBF4AE0C701B6015A
:1006B000F7FE0DC06DE285EB91E00E9432016627E6
:1006C0007727CB016C197D098E099F094AE00E94AA
:1006D000A6018AE691E00E94990100E010E080E125
:1006E00090E00E947F066C0182E190E07C012FEF98
:1006F000E21AF20A0E947706882381F0682F85EBC0
:1007000091E00E943201C701F1CF8DE691E00E9495
:1007100099018AE691E00E949901FFCFF12CE12C2A
:100720000E946E004B015C01C114D104E104F1048C
:10073000B9F00E946E00681979098A099B09683E20
:1007400073408105910580F381E0C81AD108E10862
:10075000F10898EE890E93E0991EA11CB11CE4CF1C
:100760000115110509F4BBCF0E94FD00882309F48F
:10077000B6CF0E940000B3CFE5EBF1E01382128206
:1007800088EE93E0A0E0B0E084839583A683B783EE
:1007900084E091E09183808385EC90E09587848765
:1007A00084EC90E09787868780EC90E0918B808B3B
:1007B00081EC90E0938B828B82EC90E0958B848B24
:1007C00086EC90E0978B868B118E128E138E148E92
:1007D0000895ABE0B0E0EFEEF3E00C9485067C0109
:1007E0003B018A01FC0117821682838181FFC8C107
:1007F000CE0101965C01F7019381F30193FD859190
:1008000093FF81913F01882309F453C1853239F464
:1008100093FD859193FF81913F01853229F4B701C2
:1008200090E00E94D905E7CF912C212C312CFFE1DB
:10083000F31538F08B3211F190F4803209F18332E4
:1008400029F137FC3CC020ED280F2A3050F536FE48
:1008500020C08AE0989E200D1124922E06C08D3271
:1008600091F0803371F7689430F8F30193FD85912E
:1008700093FF81913F018111DACF21C0689431F853
:10088000689432F8F2CF689433F8EFCF689434F874
:10089000ECCFEAE02E9E200D1124222E689435F82C
:1008A000E4CF8E3229F436FC04C1689436F8DDCFEB
:1008B0008C3619F4689437F8D8CF8836B1F2982F6F
:1008C0009F7D95549330E0F08336A1F18337C1F1D9
:1008D000833509F063C02801F2E04F0E511CF80186
:1008E000C080D180692D70E036FC02C06FEF7FEFD1
:1008F000C6010E94C3054C01689437F882010AC002
:100900000C5F1F4FFFE3F98388248394912C6501CA
:10091000E89437F833FE2DC0522C8114910471F500
:10092000552009F468CFB70180E290E00E94D90514
:100930005A94F6CFF801808189830E5F1F4FE4CF70
:100940002801F2E04F0E511CF801C080D180692DC2
:1009500070E036FC02C06FEF7FEFC6010E94CE054B
:100960004C018201D5CFB70180E290E00E94D90509
:100970002A942814190409F0B0F7CECFF60137FCF9
:10098000859137FE81916F01B70190E00E94D905F2
:1009900051105A94F1E08F1A9108BFCF843619F0A4
:1009A000893609F077C0F80137FE6BC0608171812C
:1009B000828193810C5F1F4FF32DFF763F2E97FFAF
:1009C00009C090958095709561957F4F8F4F9F4F8F
:1009D000689437F82AE030E0A5010E940906C82E85
:1009E000CA188C2C432C36FE0CC0E89440F8C9146D
:1009F00040F434FE05C032FC03C0F32DFE7E4F2EC2
:100A0000892C44FE95C0FE01EC0DF11D80818033E0
:100A100009F087C0242D297E422E842D8870582EFF
:100A200043FC95C040FE8FC09C2C821418F42C0C03
:100A3000922C981844FE91C0B70180E390E00E9488
:100A4000D90542FE09C088E790E041FE02C088E572
:100A500090E0B7010E94D905C91408F48AC0CA946D
:100A6000D12C9FEFC91AD90ACA0CDB1CF60182915E
:100A70006F01B70190E00E94D905AC14BD04B1F735
:100A80004FCF60817181072E000C880B990B0E5F90
:100A90001F4F92CFD32CE894D4F82AE030E085376A
:100AA00039F1232D297FD22E8F3601F148F4883574
:100AB000A9F0F701868197812B96E2E10C94A106BB
:100AC000803749F08837A9F7D4FE02C06894D2F87D
:100AD00020E130E00DC06894D4F8F6CF34FE03C0B6
:100AE000822F8660D82E20E132E002C028E030E07C
:100AF000F801D7FE0FC060817181828193810C5F04
:100B00001F4FA5010E940906C82ECA183D2CE89463
:100B100037F867CF6081718190E080E00E5F1F4FF2
:100B2000F0CF42FC02C0839478CF8394839475CF36
:100B3000842D867809F471CFF6CFB70180E290E07A
:100B40000E94D90583948214C0F3512C73CF522C88
:100B50005818821408F46ECFF8CF842D867809F4E3
:100B60007BCF8BE241FE80E247FC8DE2B70190E053
:100B700071CFB70180E390E00E94D9059A946CCFC1
:100B80008FEF9FEF99CFFC010590615070400110ED
:100B9000D8F7809590958E0F9F1F0895FC016150A6
:100BA000704001900110D8F7809590958E0F9F1F8F
:100BB00008950F931F93CF93DF93182F092FEB0105
:100BC0008B8181FD09C01FEF0FEF812F902FDF91E7
:100BD000CF911F910F91089582FF14C02E813F8104
:100BE0008C819D81281739073CF4E881F981CF0178
:100BF00001969983888310838E819F8101969F83BC
:100C00008E83E3CFE885F985812F0995892BA1F3A0
:100C1000DACFFA01AA27283051F1203181F1E89486
:100C20006F936E7F6E5F7F4F8F4F9F4FAF4FB1E0DF
:100C30003ED0B4E03CD0670F781F891F9A1FA11DDA
:100C4000680F791F8A1F911DA11D6A0F711D811DDB
:100C5000911DA11D20D009F468943F912AE0269FA0
:100C600011243019305D3193DEF6CF010895462FFF
:100C70004770405D4193B3E00FD0C9F7F6CF462FE0
:100C80004F70405D4A3318F0495D31FD4052419349
:100C900002D0A9F7EACFB4E0A69597958795779506
:100CA0006795BA95C9F700976105710508959B018D
:100CB000AC010A2E06945795479537952795BA9516
:100CC000C9F7620F731F841F951FA01D0895DC01D3
:100CD000CB01FC01F999FECF06C0F2BDE1BDF89A47
:100CE000319600B40D9241505040B8F70895F999EB
:100CF000FECF92BD81BDF89A992780B50895A8E1ED
:100D0000B0E042E050E00C9469062F923F924F927F
:100D10005F926F927F928F929F92AF92BF92CF928B
:100D2000DF92EF92FF920F931F93CF93DF93CDB794
:100D3000DEB7CA1BDB0B0FB6F894DEBF0FBECDBF0C
:100D400009942A88398848885F846E847D848C84DD
:100D50009B84AA84B984C884DF80EE80FD800C81E6
:100D60001B81AA81B981CE0FD11D0FB6F894DEBFC9
:100D70000FBECDBFED010895A1E21A2EAA1BBB1B29
:100D8000FD010DC0AA1FBB1FEE1FFF1FA217B30757
:100D9000E407F50720F0A21BB30BE40BF50B661F6D
:100DA000771F881F991F1A9469F760957095809531
:100DB00090959B01AC01BD01CF010895EE0FFF1F7F
:0C0DC0000590F491E02D0994F894FFCF09
:100DCC000000000032019300C0007901F100CF0057
:100DDC00E300466F756E642070617267656E206209
:100DEC006C6F636B2068656164657220696E204569
:100DFC004550524F4D3A2049443A253058205665BB
:100E0C007273696F6E3A25642E2564204C656E678B
:100E1C0074683A2025642062797465730A006465ED
:100E2C006C61793A2000204020000D0A0046617464
:100E3C00616C3A2050617267656E20626C6F636BF7
:100E4C002068656164657220776974682069642024
:100E5C0030784545206E6F742070726573656E74C2
:0C0E6C0020696E20454550524F4D2E006D
:00000001FF
